{
  "_format": "hh-sol-artifact-1",
  "contractName": "EtherbaseUpgradeable",
  "sourceName": "contracts/EtherbaseUpgradeable.sol",
  "abi": [
    {
      "inputs": [],
      "name": "EmptyReceiver",
      "type": "error"
    },
    {
      "inputs": [],
      "name": "InsufficientFunds",
      "type": "error"
    },
    {
      "inputs": [
        {
          "internalType": "bytes32",
          "name": "role",
          "type": "bytes32"
        }
      ],
      "name": "RoleRequired",
      "type": "error"
    },
    {
      "inputs": [
        {
          "internalType": "address",
          "name": "unauthorizedSender",
          "type": "address"
        }
      ],
      "name": "Unauthorized",
      "type": "error"
    },
    {
      "anonymous": false,
      "inputs": [
        {
          "indexed": false,
          "internalType": "address",
          "name": "sender",
          "type": "address"
        },
        {
          "indexed": false,
          "internalType": "uint256",
          "name": "amount",
          "type": "uint256"
        }
      ],
      "name": "EtherReceived",
      "type": "event"
    },
    {
      "anonymous": false,
      "inputs": [
        {
          "indexed": false,
          "internalType": "address",
          "name": "receiver",
          "type": "address"
        },
        {
          "indexed": false,
          "internalType": "uint256",
          "name": "amount",
          "type": "uint256"
        }
      ],
      "name": "EtherSent",
      "type": "event"
    },
    {
      "anonymous": false,
      "inputs": [
        {
          "indexed": false,
          "internalType": "uint8",
          "name": "version",
          "type": "uint8"
        }
      ],
      "name": "Initialized",
      "type": "event"
    },
    {
      "anonymous": false,
      "inputs": [
        {
          "indexed": true,
          "internalType": "bytes32",
          "name": "role",
          "type": "bytes32"
        },
        {
          "indexed": true,
          "internalType": "bytes32",
          "name": "previousAdminRole",
          "type": "bytes32"
        },
        {
          "indexed": true,
          "internalType": "bytes32",
          "name": "newAdminRole",
          "type": "bytes32"
        }
      ],
      "name": "RoleAdminChanged",
      "type": "event"
    },
    {
      "anonymous": false,
      "inputs": [
        {
          "indexed": true,
          "internalType": "bytes32",
          "name": "role",
          "type": "bytes32"
        },
        {
          "indexed": true,
          "internalType": "address",
          "name": "account",
          "type": "address"
        },
        {
          "indexed": true,
          "internalType": "address",
          "name": "sender",
          "type": "address"
        }
      ],
      "name": "RoleGranted",
      "type": "event"
    },
    {
      "anonymous": false,
      "inputs": [
        {
          "indexed": true,
          "internalType": "bytes32",
          "name": "role",
          "type": "bytes32"
        },
        {
          "indexed": true,
          "internalType": "address",
          "name": "account",
          "type": "address"
        },
        {
          "indexed": true,
          "internalType": "address",
          "name": "sender",
          "type": "address"
        }
      ],
      "name": "RoleRevoked",
      "type": "event"
    },
    {
      "anonymous": false,
      "inputs": [
        {
          "indexed": false,
          "internalType": "string",
          "name": "oldVersion",
          "type": "string"
        },
        {
          "indexed": false,
          "internalType": "string",
          "name": "newVersion",
          "type": "string"
        }
      ],
      "name": "VersionUpdated",
      "type": "event"
    },
    {
      "inputs": [],
      "name": "DEFAULT_ADMIN_ROLE",
      "outputs": [
        {
          "internalType": "bytes32",
          "name": "",
          "type": "bytes32"
        }
      ],
      "stateMutability": "view",
      "type": "function"
    },
    {
      "inputs": [],
      "name": "ETHER_MANAGER_ROLE",
      "outputs": [
        {
          "internalType": "bytes32",
          "name": "",
          "type": "bytes32"
        }
      ],
      "stateMutability": "view",
      "type": "function"
    },
    {
      "inputs": [
        {
          "internalType": "bytes32",
          "name": "role",
          "type": "bytes32"
        }
      ],
      "name": "getRoleAdmin",
      "outputs": [
        {
          "internalType": "bytes32",
          "name": "",
          "type": "bytes32"
        }
      ],
      "stateMutability": "view",
      "type": "function"
    },
    {
      "inputs": [
        {
          "internalType": "bytes32",
          "name": "role",
          "type": "bytes32"
        },
        {
          "internalType": "uint256",
          "name": "index",
          "type": "uint256"
        }
      ],
      "name": "getRoleMember",
      "outputs": [
        {
          "internalType": "address",
          "name": "",
          "type": "address"
        }
      ],
      "stateMutability": "view",
      "type": "function"
    },
    {
      "inputs": [
        {
          "internalType": "bytes32",
          "name": "role",
          "type": "bytes32"
        }
      ],
      "name": "getRoleMemberCount",
      "outputs": [
        {
          "internalType": "uint256",
          "name": "",
          "type": "uint256"
        }
      ],
      "stateMutability": "view",
      "type": "function"
    },
    {
      "inputs": [
        {
          "internalType": "bytes32",
          "name": "role",
          "type": "bytes32"
        },
        {
          "internalType": "address",
          "name": "account",
          "type": "address"
        }
      ],
      "name": "grantRole",
      "outputs": [],
      "stateMutability": "nonpayable",
      "type": "function"
    },
    {
      "inputs": [
        {
          "internalType": "bytes32",
          "name": "role",
          "type": "bytes32"
        },
        {
          "internalType": "address",
          "name": "account",
          "type": "address"
        }
      ],
      "name": "hasRole",
      "outputs": [
        {
          "internalType": "bool",
          "name": "",
          "type": "bool"
        }
      ],
      "stateMutability": "view",
      "type": "function"
    },
    {
      "inputs": [
        {
          "internalType": "address",
          "name": "schainOwner",
          "type": "address"
        }
      ],
      "name": "initialize",
      "outputs": [],
      "stateMutability": "nonpayable",
      "type": "function"
    },
    {
      "inputs": [
        {
          "internalType": "address payable",
          "name": "receiver",
          "type": "address"
        },
        {
          "internalType": "uint256",
          "name": "amount",
          "type": "uint256"
        }
      ],
      "name": "partiallyRetrieve",
      "outputs": [],
      "stateMutability": "nonpayable",
      "type": "function"
    },
    {
      "inputs": [
        {
          "internalType": "bytes32",
          "name": "role",
          "type": "bytes32"
        },
        {
          "internalType": "address",
          "name": "account",
          "type": "address"
        }
      ],
      "name": "renounceRole",
      "outputs": [],
      "stateMutability": "nonpayable",
      "type": "function"
    },
    {
      "inputs": [
        {
          "internalType": "address payable",
          "name": "receiver",
          "type": "address"
        }
      ],
      "name": "retrieve",
      "outputs": [],
      "stateMutability": "nonpayable",
      "type": "function"
    },
    {
      "inputs": [
        {
          "internalType": "bytes32",
          "name": "role",
          "type": "bytes32"
        },
        {
          "internalType": "address",
          "name": "account",
          "type": "address"
        }
      ],
      "name": "revokeRole",
      "outputs": [],
      "stateMutability": "nonpayable",
      "type": "function"
    },
    {
      "inputs": [
        {
          "internalType": "string",
          "name": "newVersion",
          "type": "string"
        }
      ],
      "name": "setVersion",
      "outputs": [],
      "stateMutability": "nonpayable",
      "type": "function"
    },
    {
      "inputs": [
        {
          "internalType": "bytes4",
          "name": "interfaceId",
          "type": "bytes4"
        }
      ],
      "name": "supportsInterface",
      "outputs": [
        {
          "internalType": "bool",
          "name": "",
          "type": "bool"
        }
      ],
      "stateMutability": "view",
      "type": "function"
    },
    {
      "inputs": [],
      "name": "version",
      "outputs": [
        {
          "internalType": "string",
          "name": "",
          "type": "string"
        }
      ],
      "stateMutability": "view",
      "type": "function"
    },
    {
      "stateMutability": "payable",
      "type": "receive"
    }
  ],
  "bytecode": "0x608060405234801561001057600080fd5b506112e4806100206000396000f3fe6080604052600436106100ec5760003560e01c8063788bc78c1161008a578063bc2a1e8d11610059578063bc2a1e8d146102d4578063c4d66de8146102f6578063ca15c87314610316578063d547741f1461033657600080fd5b8063788bc78c146102475780639010d07c1461026757806391d148541461029f578063a217fddf146102bf57600080fd5b8063248a9ca3116100c6578063248a9ca3146101a75780632f2ff15d146101e557806336568abe1461020557806354fd4d501461022557600080fd5b806301ffc9a7146101305780630a79309b14610165578063204a3e931461018757600080fd5b3661012b57604080513381523460208201527f1e57e3bb474320be3d2c77138f75b7c3941292d647f5f9634e33a8e94e0e069b910160405180910390a1005b600080fd5b34801561013c57600080fd5b5061015061014b366004610e72565b610356565b60405190151581526020015b60405180910390f35b34801561017157600080fd5b50610185610180366004610eb1565b610381565b005b34801561019357600080fd5b506101856101a2366004610ece565b6103d8565b3480156101b357600080fd5b506101d76101c2366004610efa565b60009081526065602052604090206001015490565b60405190815260200161015c565b3480156101f157600080fd5b50610185610200366004610f13565b6104e2565b34801561021157600080fd5b50610185610220366004610f13565b610507565b34801561023157600080fd5b5061023a610585565b60405161015c9190610f73565b34801561025357600080fd5b50610185610262366004610fa6565b610613565b34801561027357600080fd5b50610287610282366004611018565b610685565b6040516001600160a01b03909116815260200161015c565b3480156102ab57600080fd5b506101506102ba366004610f13565b6106a4565b3480156102cb57600080fd5b506101d7600081565b3480156102e057600080fd5b506101d760008051602061128f83398151915281565b34801561030257600080fd5b50610185610311366004610eb1565b6106cf565b34801561032257600080fd5b506101d7610331366004610efa565b610803565b34801561034257600080fd5b50610185610351366004610f13565b61081a565b60006001600160e01b03198216635a05180f60e01b148061037b575061037b8261083f565b92915050565b61039960008051602061128f833981519152336106a4565b6103cb57604051634d4a974f60e01b815260008051602061128f83398151915260048201526024015b60405180910390fd5b6103d581476103d8565b50565b6103f060008051602061128f833981519152336106a4565b61041d57604051634d4a974f60e01b815260008051602061128f83398151915260048201526024016103c2565b6001600160a01b0382166104445760405163d551823d60e01b815260040160405180910390fd5b478111156104655760405163356680b760e01b815260040160405180910390fd5b604080516001600160a01b0384168152602081018390527f6109e2559dfa766aaec7118351d48a523f0a4157f49c8d68749c8ac41318ad12910160405180910390a16040516001600160a01b0383169082156108fc029083906000818181858888f193505050501580156104dd573d6000803e3d6000fd5b505050565b6000828152606560205260409020600101546104fd81610874565b6104dd838361087e565b6001600160a01b03811633146105775760405162461bcd60e51b815260206004820152602f60248201527f416363657373436f6e74726f6c3a2063616e206f6e6c792072656e6f756e636560448201526e103937b632b9903337b91039b2b63360891b60648201526084016103c2565b61058182826108a0565b5050565b60c980546105929061103a565b80601f01602080910402602001604051908101604052809291908181526020018280546105be9061103a565b801561060b5780601f106105e05761010080835404028352916020019161060b565b820191906000526020600020905b8154815290600101906020018083116105ee57829003601f168201915b505050505081565b61061e6000336106a4565b61063d5760405163472511eb60e11b81523360048201526024016103c2565b7f22efc5f993dce37856b77dd72d7d7661032380c9728c4133f3c071c591bc6ca760c983836040516106719392919061109e565b60405180910390a16104dd60c98383610dd9565b600082815260976020526040812061069d90836108c2565b9392505050565b60009182526065602090815260408084206001600160a01b0393909316845291905290205460ff1690565b600054610100900460ff16158080156106ef5750600054600160ff909116105b806107095750303b158015610709575060005460ff166001145b61076c5760405162461bcd60e51b815260206004820152602e60248201527f496e697469616c697a61626c653a20636f6e747261637420697320616c72656160448201526d191e481a5b9a5d1a585b1a5e995960921b60648201526084016103c2565b6000805460ff19166001179055801561078f576000805461ff0019166101001790555b6107976108ce565b6107a260008361093b565b6107ba60008051602061128f8339815191528361093b565b8015610581576000805461ff0019169055604051600181527f7f26b83ff96e1f2b6a682f133852f6798a09c465da95921460cefb38474024989060200160405180910390a15050565b600081815260976020526040812061037b90610945565b60008281526065602052604090206001015461083581610874565b6104dd83836108a0565b60006001600160e01b03198216637965db0b60e01b148061037b57506301ffc9a760e01b6001600160e01b031983161461037b565b6103d5813361094f565b61088882826109a8565b60008281526097602052604090206104dd9082610a2e565b6108aa8282610a43565b60008281526097602052604090206104dd9082610aaa565b600061069d8383610abf565b600054610100900460ff166109395760405162461bcd60e51b815260206004820152602b60248201527f496e697469616c697a61626c653a20636f6e7472616374206973206e6f74206960448201526a6e697469616c697a696e6760a81b60648201526084016103c2565b565b610581828261087e565b600061037b825490565b61095982826106a4565b6105815761096681610ae9565b610971836020610afb565b60405160200161098292919061115c565b60408051601f198184030181529082905262461bcd60e51b82526103c291600401610f73565b6109b282826106a4565b6105815760008281526065602090815260408083206001600160a01b03851684529091529020805460ff191660011790556109ea3390565b6001600160a01b0316816001600160a01b0316837f2f8788117e7eff1d82e926ec794901d17c78024a50270940304540a733656f0d60405160405180910390a45050565b600061069d836001600160a01b038416610c97565b610a4d82826106a4565b156105815760008281526065602090815260408083206001600160a01b0385168085529252808320805460ff1916905551339285917ff6391f5c32d9c69d2a47ea670b442974b53935d1edc7fd64eb21e047a839171b9190a45050565b600061069d836001600160a01b038416610ce6565b6000826000018281548110610ad657610ad66111d1565b9060005260206000200154905092915050565b606061037b6001600160a01b03831660145b60606000610b0a8360026111fd565b610b1590600261121c565b67ffffffffffffffff811115610b2d57610b2d611234565b6040519080825280601f01601f191660200182016040528015610b57576020820181803683370190505b509050600360fc1b81600081518110610b7257610b726111d1565b60200101906001600160f81b031916908160001a905350600f60fb1b81600181518110610ba157610ba16111d1565b60200101906001600160f81b031916908160001a9053506000610bc58460026111fd565b610bd090600161121c565b90505b6001811115610c48576f181899199a1a9b1b9c1cb0b131b232b360811b85600f1660108110610c0457610c046111d1565b1a60f81b828281518110610c1a57610c1a6111d1565b60200101906001600160f81b031916908160001a90535060049490941c93610c418161124a565b9050610bd3565b50831561069d5760405162461bcd60e51b815260206004820181905260248201527f537472696e67733a20686578206c656e67746820696e73756666696369656e7460448201526064016103c2565b6000818152600183016020526040812054610cde5750815460018181018455600084815260208082209093018490558454848252828601909352604090209190915561037b565b50600061037b565b60008181526001830160205260408120548015610dcf576000610d0a600183611261565b8554909150600090610d1e90600190611261565b9050818114610d83576000866000018281548110610d3e57610d3e6111d1565b9060005260206000200154905080876000018481548110610d6157610d616111d1565b6000918252602080832090910192909255918252600188019052604090208390555b8554869080610d9457610d94611278565b60019003818190600052602060002001600090559055856001016000868152602001908152602001600020600090556001935050505061037b565b600091505061037b565b828054610de59061103a565b90600052602060002090601f016020900481019282610e075760008555610e4d565b82601f10610e205782800160ff19823516178555610e4d565b82800160010185558215610e4d579182015b82811115610e4d578235825591602001919060010190610e32565b50610e59929150610e5d565b5090565b5b80821115610e595760008155600101610e5e565b600060208284031215610e8457600080fd5b81356001600160e01b03198116811461069d57600080fd5b6001600160a01b03811681146103d557600080fd5b600060208284031215610ec357600080fd5b813561069d81610e9c565b60008060408385031215610ee157600080fd5b8235610eec81610e9c565b946020939093013593505050565b600060208284031215610f0c57600080fd5b5035919050565b60008060408385031215610f2657600080fd5b823591506020830135610f3881610e9c565b809150509250929050565b60005b83811015610f5e578181015183820152602001610f46565b83811115610f6d576000848401525b50505050565b6020815260008251806020840152610f92816040850160208701610f43565b601f01601f19169190910160400192915050565b60008060208385031215610fb957600080fd5b823567ffffffffffffffff80821115610fd157600080fd5b818501915085601f830112610fe557600080fd5b813581811115610ff457600080fd5b86602082850101111561100657600080fd5b60209290920196919550909350505050565b6000806040838503121561102b57600080fd5b50508035926020909101359150565b600181811c9082168061104e57607f821691505b6020821081141561106f57634e487b7160e01b600052602260045260246000fd5b50919050565b81835281816020850137506000828201602090810191909152601f909101601f19169091010190565b60408152600080855481600182811c9150808316806110be57607f831692505b60208084108214156110de57634e487b7160e01b86526022600452602486fd5b60408801849052606088018280156110fd576001811461110e57611139565b60ff19871682528282019750611139565b60008d81526020902060005b878110156111335781548482015290860190840161111a565b83019850505b5050878603818901525050505050611152818587611075565b9695505050505050565b7f416363657373436f6e74726f6c3a206163636f756e7420000000000000000000815260008351611194816017850160208801610f43565b7001034b99036b4b9b9b4b733903937b6329607d1b60179184019182015283516111c5816028840160208801610f43565b01602801949350505050565b634e487b7160e01b600052603260045260246000fd5b634e487b7160e01b600052601160045260246000fd5b6000816000190483118215151615611217576112176111e7565b500290565b6000821982111561122f5761122f6111e7565b500190565b634e487b7160e01b600052604160045260246000fd5b600081611259576112596111e7565b506000190190565b600082821015611273576112736111e7565b500390565b634e487b7160e01b600052603160045260246000fdfee0ba7b49edc651b7ad93b374c67f1e9a0d37370168bbb86b81c569ebfa15f046a26469706673582212205b15385a05b46d409822b7a543acfb1dfa69bfbea264ae13eb535459c253482064736f6c634300080b0033",
  "linkReferences": {},
  "deployedLinkReferences": {}
}