{
  "_format": "hh-sol-artifact-1",
  "contractName": "FixedRateExchange",
  "sourceName": "contracts/pools/fixedRate/FixedRateExchange.sol",
  "abi": [
    {
      "inputs": [
        {
          "internalType": "address",
          "name": "_router",
          "type": "address"
        }
      ],
      "stateMutability": "nonpayable",
      "type": "constructor"
    },
    {
      "anonymous": false,
      "inputs": [
        {
          "indexed": true,
          "internalType": "bytes32",
          "name": "exchangeId",
          "type": "bytes32"
        },
        {
          "indexed": false,
          "internalType": "address",
          "name": "to",
          "type": "address"
        },
        {
          "indexed": false,
          "internalType": "address",
          "name": "token",
          "type": "address"
        },
        {
          "indexed": false,
          "internalType": "uint256",
          "name": "amount",
          "type": "uint256"
        }
      ],
      "name": "ConsumeMarketFee",
      "type": "event"
    },
    {
      "anonymous": false,
      "inputs": [
        {
          "indexed": true,
          "internalType": "bytes32",
          "name": "exchangeId",
          "type": "bytes32"
        },
        {
          "indexed": true,
          "internalType": "address",
          "name": "exchangeOwner",
          "type": "address"
        }
      ],
      "name": "ExchangeActivated",
      "type": "event"
    },
    {
      "anonymous": false,
      "inputs": [
        {
          "indexed": true,
          "internalType": "bytes32",
          "name": "exchangeId",
          "type": "bytes32"
        },
        {
          "indexed": true,
          "internalType": "address",
          "name": "allowedSwapper",
          "type": "address"
        }
      ],
      "name": "ExchangeAllowedSwapperChanged",
      "type": "event"
    },
    {
      "anonymous": false,
      "inputs": [
        {
          "indexed": true,
          "internalType": "bytes32",
          "name": "exchangeId",
          "type": "bytes32"
        },
        {
          "indexed": true,
          "internalType": "address",
          "name": "baseToken",
          "type": "address"
        },
        {
          "indexed": true,
          "internalType": "address",
          "name": "datatoken",
          "type": "address"
        },
        {
          "indexed": false,
          "internalType": "address",
          "name": "exchangeOwner",
          "type": "address"
        },
        {
          "indexed": false,
          "internalType": "uint256",
          "name": "fixedRate",
          "type": "uint256"
        }
      ],
      "name": "ExchangeCreated",
      "type": "event"
    },
    {
      "anonymous": false,
      "inputs": [
        {
          "indexed": true,
          "internalType": "bytes32",
          "name": "exchangeId",
          "type": "bytes32"
        },
        {
          "indexed": true,
          "internalType": "address",
          "name": "exchangeOwner",
          "type": "address"
        }
      ],
      "name": "ExchangeDeactivated",
      "type": "event"
    },
    {
      "anonymous": false,
      "inputs": [
        {
          "indexed": true,
          "internalType": "bytes32",
          "name": "exchangeId",
          "type": "bytes32"
        },
        {
          "indexed": true,
          "internalType": "address",
          "name": "exchangeOwner",
          "type": "address"
        },
        {
          "indexed": false,
          "internalType": "bool",
          "name": "withMint",
          "type": "bool"
        }
      ],
      "name": "ExchangeMintStateChanged",
      "type": "event"
    },
    {
      "anonymous": false,
      "inputs": [
        {
          "indexed": true,
          "internalType": "bytes32",
          "name": "exchangeId",
          "type": "bytes32"
        },
        {
          "indexed": true,
          "internalType": "address",
          "name": "exchangeOwner",
          "type": "address"
        },
        {
          "indexed": false,
          "internalType": "uint256",
          "name": "newRate",
          "type": "uint256"
        }
      ],
      "name": "ExchangeRateChanged",
      "type": "event"
    },
    {
      "anonymous": false,
      "inputs": [
        {
          "indexed": true,
          "internalType": "bytes32",
          "name": "exchangeId",
          "type": "bytes32"
        },
        {
          "indexed": true,
          "internalType": "address",
          "name": "feeToken",
          "type": "address"
        },
        {
          "indexed": false,
          "internalType": "uint256",
          "name": "feeAmount",
          "type": "uint256"
        }
      ],
      "name": "MarketFeeCollected",
      "type": "event"
    },
    {
      "anonymous": false,
      "inputs": [
        {
          "indexed": true,
          "internalType": "bytes32",
          "name": "exchangeId",
          "type": "bytes32"
        },
        {
          "indexed": true,
          "internalType": "address",
          "name": "feeToken",
          "type": "address"
        },
        {
          "indexed": false,
          "internalType": "uint256",
          "name": "feeAmount",
          "type": "uint256"
        }
      ],
      "name": "OceanFeeCollected",
      "type": "event"
    },
    {
      "anonymous": false,
      "inputs": [
        {
          "indexed": true,
          "internalType": "bytes32",
          "name": "exchangeId",
          "type": "bytes32"
        },
        {
          "indexed": false,
          "internalType": "address",
          "name": "caller",
          "type": "address"
        },
        {
          "indexed": false,
          "internalType": "address",
          "name": "newMarketCollector",
          "type": "address"
        },
        {
          "indexed": false,
          "internalType": "uint256",
          "name": "swapFee",
          "type": "uint256"
        }
      ],
      "name": "PublishMarketFeeChanged",
      "type": "event"
    },
    {
      "anonymous": false,
      "inputs": [
        {
          "indexed": true,
          "internalType": "bytes32",
          "name": "exchangeId",
          "type": "bytes32"
        },
        {
          "indexed": false,
          "internalType": "uint256",
          "name": "oceanFeeAmount",
          "type": "uint256"
        },
        {
          "indexed": false,
          "internalType": "uint256",
          "name": "marketFeeAmount",
          "type": "uint256"
        },
        {
          "indexed": false,
          "internalType": "uint256",
          "name": "consumeMarketFeeAmount",
          "type": "uint256"
        },
        {
          "indexed": false,
          "internalType": "address",
          "name": "tokenFeeAddress",
          "type": "address"
        }
      ],
      "name": "SWAP_FEES",
      "type": "event"
    },
    {
      "anonymous": false,
      "inputs": [
        {
          "indexed": true,
          "internalType": "bytes32",
          "name": "exchangeId",
          "type": "bytes32"
        },
        {
          "indexed": true,
          "internalType": "address",
          "name": "by",
          "type": "address"
        },
        {
          "indexed": false,
          "internalType": "uint256",
          "name": "baseTokenSwappedAmount",
          "type": "uint256"
        },
        {
          "indexed": false,
          "internalType": "uint256",
          "name": "datatokenSwappedAmount",
          "type": "uint256"
        },
        {
          "indexed": false,
          "internalType": "address",
          "name": "tokenOutAddress",
          "type": "address"
        },
        {
          "indexed": false,
          "internalType": "uint256",
          "name": "marketFeeAmount",
          "type": "uint256"
        },
        {
          "indexed": false,
          "internalType": "uint256",
          "name": "oceanFeeAmount",
          "type": "uint256"
        },
        {
          "indexed": false,
          "internalType": "uint256",
          "name": "consumeMarketFeeAmount",
          "type": "uint256"
        }
      ],
      "name": "Swapped",
      "type": "event"
    },
    {
      "anonymous": false,
      "inputs": [
        {
          "indexed": true,
          "internalType": "bytes32",
          "name": "exchangeId",
          "type": "bytes32"
        },
        {
          "indexed": true,
          "internalType": "address",
          "name": "to",
          "type": "address"
        },
        {
          "indexed": true,
          "internalType": "address",
          "name": "token",
          "type": "address"
        },
        {
          "indexed": false,
          "internalType": "uint256",
          "name": "amount",
          "type": "uint256"
        }
      ],
      "name": "TokenCollected",
      "type": "event"
    },
    {
      "inputs": [],
      "name": "MAX_FEE",
      "outputs": [
        {
          "internalType": "uint256",
          "name": "",
          "type": "uint256"
        }
      ],
      "stateMutability": "view",
      "type": "function"
    },
    {
      "inputs": [],
      "name": "MIN_FEE",
      "outputs": [
        {
          "internalType": "uint256",
          "name": "",
          "type": "uint256"
        }
      ],
      "stateMutability": "view",
      "type": "function"
    },
    {
      "inputs": [],
      "name": "MIN_RATE",
      "outputs": [
        {
          "internalType": "uint256",
          "name": "",
          "type": "uint256"
        }
      ],
      "stateMutability": "view",
      "type": "function"
    },
    {
      "inputs": [
        {
          "internalType": "bytes32",
          "name": "exchangeId",
          "type": "bytes32"
        },
        {
          "internalType": "uint256",
          "name": "datatokenAmount",
          "type": "uint256"
        },
        {
          "internalType": "uint256",
          "name": "maxBaseTokenAmount",
          "type": "uint256"
        },
        {
          "internalType": "address",
          "name": "consumeMarketAddress",
          "type": "address"
        },
        {
          "internalType": "uint256",
          "name": "consumeMarketSwapFeeAmount",
          "type": "uint256"
        }
      ],
      "name": "buyDT",
      "outputs": [],
      "stateMutability": "nonpayable",
      "type": "function"
    },
    {
      "inputs": [
        {
          "internalType": "bytes32",
          "name": "exchangeId",
          "type": "bytes32"
        },
        {
          "internalType": "uint256",
          "name": "datatokenAmount",
          "type": "uint256"
        },
        {
          "internalType": "uint256",
          "name": "consumeMarketSwapFeeAmount",
          "type": "uint256"
        }
      ],
      "name": "calcBaseInGivenOutDT",
      "outputs": [
        {
          "internalType": "uint256",
          "name": "baseTokenAmount",
          "type": "uint256"
        },
        {
          "internalType": "uint256",
          "name": "oceanFeeAmount",
          "type": "uint256"
        },
        {
          "internalType": "uint256",
          "name": "publishMarketFeeAmount",
          "type": "uint256"
        },
        {
          "internalType": "uint256",
          "name": "consumeMarketFeeAmount",
          "type": "uint256"
        }
      ],
      "stateMutability": "view",
      "type": "function"
    },
    {
      "inputs": [
        {
          "internalType": "bytes32",
          "name": "exchangeId",
          "type": "bytes32"
        },
        {
          "internalType": "uint256",
          "name": "datatokenAmount",
          "type": "uint256"
        },
        {
          "internalType": "uint256",
          "name": "consumeMarketSwapFeeAmount",
          "type": "uint256"
        }
      ],
      "name": "calcBaseOutGivenInDT",
      "outputs": [
        {
          "internalType": "uint256",
          "name": "baseTokenAmount",
          "type": "uint256"
        },
        {
          "internalType": "uint256",
          "name": "oceanFeeAmount",
          "type": "uint256"
        },
        {
          "internalType": "uint256",
          "name": "publishMarketFeeAmount",
          "type": "uint256"
        },
        {
          "internalType": "uint256",
          "name": "consumeMarketFeeAmount",
          "type": "uint256"
        }
      ],
      "stateMutability": "view",
      "type": "function"
    },
    {
      "inputs": [
        {
          "internalType": "bytes32",
          "name": "exchangeId",
          "type": "bytes32"
        },
        {
          "internalType": "uint256",
          "name": "amount",
          "type": "uint256"
        }
      ],
      "name": "collectBT",
      "outputs": [],
      "stateMutability": "nonpayable",
      "type": "function"
    },
    {
      "inputs": [
        {
          "internalType": "bytes32",
          "name": "exchangeId",
          "type": "bytes32"
        },
        {
          "internalType": "uint256",
          "name": "amount",
          "type": "uint256"
        }
      ],
      "name": "collectDT",
      "outputs": [],
      "stateMutability": "nonpayable",
      "type": "function"
    },
    {
      "inputs": [
        {
          "internalType": "bytes32",
          "name": "exchangeId",
          "type": "bytes32"
        }
      ],
      "name": "collectMarketFee",
      "outputs": [],
      "stateMutability": "nonpayable",
      "type": "function"
    },
    {
      "inputs": [
        {
          "internalType": "bytes32[]",
          "name": "exchangeId",
          "type": "bytes32[]"
        }
      ],
      "name": "collectMarketFeeBatch",
      "outputs": [],
      "stateMutability": "nonpayable",
      "type": "function"
    },
    {
      "inputs": [
        {
          "internalType": "bytes32",
          "name": "exchangeId",
          "type": "bytes32"
        }
      ],
      "name": "collectOceanFee",
      "outputs": [],
      "stateMutability": "nonpayable",
      "type": "function"
    },
    {
      "inputs": [
        {
          "internalType": "bytes32[]",
          "name": "exchangeId",
          "type": "bytes32[]"
        }
      ],
      "name": "collectOceanFeeBatch",
      "outputs": [],
      "stateMutability": "nonpayable",
      "type": "function"
    },
    {
      "inputs": [
        {
          "internalType": "address",
          "name": "datatoken",
          "type": "address"
        },
        {
          "internalType": "address[]",
          "name": "addresses",
          "type": "address[]"
        },
        {
          "internalType": "uint256[]",
          "name": "uints",
          "type": "uint256[]"
        }
      ],
      "name": "createWithDecimals",
      "outputs": [
        {
          "internalType": "bytes32",
          "name": "exchangeId",
          "type": "bytes32"
        }
      ],
      "stateMutability": "nonpayable",
      "type": "function"
    },
    {
      "inputs": [
        {
          "internalType": "address",
          "name": "baseToken",
          "type": "address"
        },
        {
          "internalType": "address",
          "name": "datatoken",
          "type": "address"
        }
      ],
      "name": "generateExchangeId",
      "outputs": [
        {
          "internalType": "bytes32",
          "name": "",
          "type": "bytes32"
        }
      ],
      "stateMutability": "pure",
      "type": "function"
    },
    {
      "inputs": [
        {
          "internalType": "bytes32",
          "name": "exchangeId",
          "type": "bytes32"
        }
      ],
      "name": "getAllowedSwapper",
      "outputs": [
        {
          "internalType": "address",
          "name": "allowedSwapper",
          "type": "address"
        }
      ],
      "stateMutability": "view",
      "type": "function"
    },
    {
      "inputs": [
        {
          "internalType": "bytes32",
          "name": "exchangeId",
          "type": "bytes32"
        }
      ],
      "name": "getBTSupply",
      "outputs": [
        {
          "internalType": "uint256",
          "name": "supply",
          "type": "uint256"
        }
      ],
      "stateMutability": "view",
      "type": "function"
    },
    {
      "inputs": [
        {
          "internalType": "bytes32",
          "name": "exchangeId",
          "type": "bytes32"
        }
      ],
      "name": "getDTSupply",
      "outputs": [
        {
          "internalType": "uint256",
          "name": "supply",
          "type": "uint256"
        }
      ],
      "stateMutability": "view",
      "type": "function"
    },
    {
      "inputs": [
        {
          "internalType": "bytes32",
          "name": "exchangeId",
          "type": "bytes32"
        }
      ],
      "name": "getExchange",
      "outputs": [
        {
          "internalType": "address",
          "name": "exchangeOwner",
          "type": "address"
        },
        {
          "internalType": "address",
          "name": "datatoken",
          "type": "address"
        },
        {
          "internalType": "uint256",
          "name": "dtDecimals",
          "type": "uint256"
        },
        {
          "internalType": "address",
          "name": "baseToken",
          "type": "address"
        },
        {
          "internalType": "uint256",
          "name": "btDecimals",
          "type": "uint256"
        },
        {
          "internalType": "uint256",
          "name": "fixedRate",
          "type": "uint256"
        },
        {
          "internalType": "bool",
          "name": "active",
          "type": "bool"
        },
        {
          "internalType": "uint256",
          "name": "dtSupply",
          "type": "uint256"
        },
        {
          "internalType": "uint256",
          "name": "btSupply",
          "type": "uint256"
        },
        {
          "internalType": "uint256",
          "name": "dtBalance",
          "type": "uint256"
        },
        {
          "internalType": "uint256",
          "name": "btBalance",
          "type": "uint256"
        },
        {
          "internalType": "bool",
          "name": "withMint",
          "type": "bool"
        }
      ],
      "stateMutability": "view",
      "type": "function"
    },
    {
      "inputs": [],
      "name": "getExchanges",
      "outputs": [
        {
          "internalType": "bytes32[]",
          "name": "",
          "type": "bytes32[]"
        }
      ],
      "stateMutability": "view",
      "type": "function"
    },
    {
      "inputs": [
        {
          "internalType": "bytes32",
          "name": "exchangeId",
          "type": "bytes32"
        }
      ],
      "name": "getFeesInfo",
      "outputs": [
        {
          "internalType": "uint256",
          "name": "marketFee",
          "type": "uint256"
        },
        {
          "internalType": "address",
          "name": "marketFeeCollector",
          "type": "address"
        },
        {
          "internalType": "uint256",
          "name": "opcFee",
          "type": "uint256"
        },
        {
          "internalType": "uint256",
          "name": "marketFeeAvailable",
          "type": "uint256"
        },
        {
          "internalType": "uint256",
          "name": "oceanFeeAvailable",
          "type": "uint256"
        }
      ],
      "stateMutability": "view",
      "type": "function"
    },
    {
      "inputs": [],
      "name": "getId",
      "outputs": [
        {
          "internalType": "uint8",
          "name": "",
          "type": "uint8"
        }
      ],
      "stateMutability": "pure",
      "type": "function"
    },
    {
      "inputs": [
        {
          "internalType": "bytes32",
          "name": "exchangeId",
          "type": "bytes32"
        }
      ],
      "name": "getMarketFee",
      "outputs": [
        {
          "internalType": "uint256",
          "name": "",
          "type": "uint256"
        }
      ],
      "stateMutability": "view",
      "type": "function"
    },
    {
      "inputs": [],
      "name": "getNumberOfExchanges",
      "outputs": [
        {
          "internalType": "uint256",
          "name": "",
          "type": "uint256"
        }
      ],
      "stateMutability": "view",
      "type": "function"
    },
    {
      "inputs": [
        {
          "internalType": "address",
          "name": "baseTokenAddress",
          "type": "address"
        }
      ],
      "name": "getOPCFee",
      "outputs": [
        {
          "internalType": "uint256",
          "name": "",
          "type": "uint256"
        }
      ],
      "stateMutability": "view",
      "type": "function"
    },
    {
      "inputs": [
        {
          "internalType": "bytes32",
          "name": "exchangeId",
          "type": "bytes32"
        }
      ],
      "name": "getRate",
      "outputs": [
        {
          "internalType": "uint256",
          "name": "",
          "type": "uint256"
        }
      ],
      "stateMutability": "view",
      "type": "function"
    },
    {
      "inputs": [
        {
          "internalType": "bytes32",
          "name": "exchangeId",
          "type": "bytes32"
        }
      ],
      "name": "isActive",
      "outputs": [
        {
          "internalType": "bool",
          "name": "",
          "type": "bool"
        }
      ],
      "stateMutability": "view",
      "type": "function"
    },
    {
      "inputs": [],
      "name": "router",
      "outputs": [
        {
          "internalType": "address",
          "name": "",
          "type": "address"
        }
      ],
      "stateMutability": "view",
      "type": "function"
    },
    {
      "inputs": [
        {
          "internalType": "bytes32",
          "name": "exchangeId",
          "type": "bytes32"
        },
        {
          "internalType": "uint256",
          "name": "datatokenAmount",
          "type": "uint256"
        },
        {
          "internalType": "uint256",
          "name": "minBaseTokenAmount",
          "type": "uint256"
        },
        {
          "internalType": "address",
          "name": "consumeMarketAddress",
          "type": "address"
        },
        {
          "internalType": "uint256",
          "name": "consumeMarketSwapFeeAmount",
          "type": "uint256"
        }
      ],
      "name": "sellDT",
      "outputs": [],
      "stateMutability": "nonpayable",
      "type": "function"
    },
    {
      "inputs": [
        {
          "internalType": "bytes32",
          "name": "exchangeId",
          "type": "bytes32"
        },
        {
          "internalType": "address",
          "name": "newAllowedSwapper",
          "type": "address"
        }
      ],
      "name": "setAllowedSwapper",
      "outputs": [],
      "stateMutability": "nonpayable",
      "type": "function"
    },
    {
      "inputs": [
        {
          "internalType": "bytes32",
          "name": "exchangeId",
          "type": "bytes32"
        },
        {
          "internalType": "uint256",
          "name": "newRate",
          "type": "uint256"
        }
      ],
      "name": "setRate",
      "outputs": [],
      "stateMutability": "nonpayable",
      "type": "function"
    },
    {
      "inputs": [
        {
          "internalType": "bytes32",
          "name": "exchangeId",
          "type": "bytes32"
        }
      ],
      "name": "toggleExchangeState",
      "outputs": [],
      "stateMutability": "nonpayable",
      "type": "function"
    },
    {
      "inputs": [
        {
          "internalType": "bytes32",
          "name": "exchangeId",
          "type": "bytes32"
        },
        {
          "internalType": "bool",
          "name": "withMint",
          "type": "bool"
        }
      ],
      "name": "toggleMintState",
      "outputs": [],
      "stateMutability": "nonpayable",
      "type": "function"
    },
    {
      "inputs": [
        {
          "internalType": "bytes32",
          "name": "exchangeId",
          "type": "bytes32"
        },
        {
          "internalType": "uint256",
          "name": "_newMarketFee",
          "type": "uint256"
        }
      ],
      "name": "updateMarketFee",
      "outputs": [],
      "stateMutability": "nonpayable",
      "type": "function"
    },
    {
      "inputs": [
        {
          "internalType": "bytes32",
          "name": "exchangeId",
          "type": "bytes32"
        },
        {
          "internalType": "address",
          "name": "_newMarketCollector",
          "type": "address"
        }
      ],
      "name": "updateMarketFeeCollector",
      "outputs": [],
      "stateMutability": "nonpayable",
      "type": "function"
    }
  ],
  "bytecode": "0x60806040523480156200001157600080fd5b5060405162004518380380620045188339810160408190526200003491620000ca565b60016000556001600160a01b038116620000a45760405162461bcd60e51b815260206004820152602760248201527f46697865645261746545786368616e67653a2057726f6e6720526f75746572206044820152666164647265737360c81b606482015260840160405180910390fd5b600180546001600160a01b0319166001600160a01b0392909216919091179055620000fc565b600060208284031215620000dd57600080fd5b81516001600160a01b0381168114620000f557600080fd5b9392505050565b61440c806200010c6000396000f3fe608060405234801561001057600080fd5b50600436106102065760003560e01c80637c82ebe91161011a578063bc063e1a116100ad578063d819bfef1161007c578063d819bfef14610613578063dd1bc96a1461061f578063ed2fc85914610632578063f32f947614610645578063f887ea401461065857600080fd5b8063bc063e1a146105ab578063c2c0d1ab146105ba578063c612e48a146105ed578063c66274ea1461060057600080fd5b8063b32b56f9116100e9578063b32b56f91461055a578063b42414291461057d578063b686bcaf14610585578063b8421e2b1461059857600080fd5b80637c82ebe914610421578063855058dd1461043457806385fcbc2f14610534578063888238721461054757600080fd5b806350d571d51161019d57806360311e951161016c57806360311e95146103cd578063680819eb146103e057806368c4b7e9146103f357806376c7a3c71461040657806379dd28361461040e57600080fd5b806350d571d5146103655780635acfedc7146103785780635c36901c1461038b5780635d1ca631146103be57600080fd5b80632d24deff116101d95780632d24deff1461029e5780632e7e23b3146102b157806349b69e33146102d45780634c87087d146102e757600080fd5b8063012c32751461020b5780630b3b430d146102315780631e2e3a6b1461027457806324cb477e14610289575b600080fd5b61021e610219366004613c4b565b61066b565b6040519081526020015b60405180910390f35b61024461023f366004613d21565b610f8d565b604080519586526001600160a01b039094166020860152928401919091526060830152608082015260a001610228565b61027c611097565b6040516102289190613d3a565b61029c610297366004613d21565b6110ef565b005b61029c6102ac366004613d7e565b611315565b61021e6102bf366004613d21565b60009081526002602052604090206008015490565b61029c6102e2366004613d7e565b61136a565b6102fa6102f5366004613d21565b6113b0565b604080516001600160a01b039d8e1681529b8d1660208d01528b0199909952999096166060890152608088019490945260a0870192909252151560c086015260e085015261010084015261012083015261014082019290925290151561016082015261018001610228565b61029c610373366004613df3565b611452565b61029c610386366004613d21565b611973565b6103ae610399366004613d21565b60009081526002602052604090205460ff1690565b6040519015158152602001610228565b60405160028152602001610228565b61029c6103db366004613e3c565b611991565b61029c6103ee366004613e6c565b611b78565b61029c610401366004613df3565b611d76565b61021e612359565b61029c61041c366004613e9c565b612370565b61029c61042f366004613e3c565b61257a565b61051c610442366004613d21565b60009081526002602081815260409283902083516101e081018552815460ff808216151583526001600160a01b03610100928390048116958401959095526001840154851696830196909652938201548316606082015260038201546080820152600482015460a0820152600582015460c0820152600682015460e0820152600782015484820152600882015461012082015260098201548316610140820152600a820154610160820152600b820154610180820152600c9091015493841615156101a0820152919092049091166101c090910181905290565b6040516001600160a01b039091168152602001610228565b61021e610542366004613d21565b61264d565b61029c610555366004613e6c565b6127d5565b61021e610568366004613d21565b60009081526002602052604090206003015490565b60035461021e565b61029c610593366004613d21565b61293a565b61021e6105a6366004613ec1565b61294b565b61021e6706f05b59d3b2000081565b6105cd6105c8366004613ede565b6129c0565b604080519485526020850193909352918301526060820152608001610228565b61029c6105fb366004613e6c565b612b53565b61021e61060e366004613d21565b612b6f565b61021e6402540be40081565b6105cd61062d366004613ede565b612e81565b61021e610640366004613f0a565b612fe6565b61029c610653366004613e6c565b61301e565b60015461051c906001600160a01b031681565b6001546000906001600160a01b031633146106cd5760405162461bcd60e51b815260206004820152601e60248201527f46697865645261746545786368616e67653a206f6e6c7920726f75746572000060448201526064015b60405180910390fd5b6005825110156107165760405162461bcd60e51b8152602060048201526014602482015273092dcecc2d8d2c840ead2dce8e640d8cadccee8d60631b60448201526064016106c4565b6004835110156107685760405162461bcd60e51b815260206004820152601860248201527f496e76616c696420616464726573736573206c656e677468000000000000000060448201526064016106c4565b60006001600160a01b03168360008151811061078657610786613f38565b60200260200101516001600160a01b031614156108015760405162461bcd60e51b815260206004820152603360248201527f46697865645261746545786368616e67653a20496e76616c69642062617365546044820152726f6b656e2c20207a65726f206164647265737360681b60648201526084016106c4565b6001600160a01b0384166108735760405162461bcd60e51b815260206004820152603360248201527f46697865645261746545786368616e67653a20496e76616c69642064617461746044820152726f6b656e2c20207a65726f206164647265737360681b60648201526084016106c4565b836001600160a01b03168360008151811061089057610890613f38565b60200260200101516001600160a01b031614156109155760405162461bcd60e51b815260206004820152603760248201527f46697865645261746545786368616e67653a20496e76616c696420646174617460448201527f6f6b656e2c2020657175616c732062617365546f6b656e00000000000000000060648201526084016106c4565b6402540be4008260028151811061092e5761092e613f38565b602002602001015110156109545760405162461bcd60e51b81526004016106c490613f4e565b6109788360008151811061096a5761096a613f38565b602002602001015185612fe6565b600081815260026020526040902060030154909150156109ee5760405162461bcd60e51b815260206004820152602b60248201527f46697865645261746545786368616e67653a2045786368616e676520616c726560448201526a616479206578697374732160a81b60648201526084016106c4565b60006001905082600481518110610a0757610a07613f38565b602002602001015160001415610a1b575060005b604051806101e0016040528060011515815260200185600181518110610a4357610a43613f38565b60200260200101516001600160a01b03168152602001866001600160a01b0316815260200185600081518110610a7b57610a7b613f38565b60200260200101516001600160a01b0316815260200184600281518110610aa457610aa4613f38565b6020026020010151815260200184600181518110610ac457610ac4613f38565b6020026020010151815260200184600081518110610ae457610ae4613f38565b60200260200101518152602001600081526020016000815260200184600381518110610b1257610b12613f38565b6020026020010151815260200185600281518110610b3257610b32613f38565b60200260200101516001600160a01b031681526020016000815260200160008152602001821515815260200185600381518110610b7157610b71613f38565b6020908102919091018101516001600160a01b039081169092526000858152600280835260409182902085518154948701518616610100908102610100600160a81b031992151583166001600160a81b031997881617178355938701516001830180549188166001600160a01b03199283161790556060880151938301805494881694821694909417909355608087015160038084019190915560a0880151600484015560c0880151600584015560e0880151600684015584880151600784015561012088015160088401556101408801516009840180549189169190951617909355610160870151600a830155610180870151600b8301556101a0870151600c90920180546101c090980151909616909302901515909216949092169390931792909217905583518491908110610cab57610cab613f38565b602002602001015160001480610cee5750610cd0612710670de0b6b3a7640000613fb2565b83600381518110610ce357610ce3613f38565b602002602001015110155b610d2c5760405162461bcd60e51b815260206004820152600f60248201526e5377617046656520746f6f206c6f7760881b60448201526064016106c4565b6706f05b59d3b2000083600381518110610d4857610d48613f38565b60200260200101511115610d915760405162461bcd60e51b815260206004820152601060248201526f0a6eec2e08ccaca40e8dede40d0d2ced60831b60448201526064016106c4565b6003805460018101825560009182527fc2575a0e9e593c00f959f8c92f12db2869c3395a3b0502d05e2516446f71f85b0183905584516001600160a01b038716918691610de057610de0613f38565b60200260200101516001600160a01b0316837feb7a353641f7d3cc54b497ef1553fdc292b64d9cc3be8587c23dfba01f310b1987600181518110610e2657610e26613f38565b602002602001015187600281518110610e4157610e41613f38565b6020026020010151604051610e6b9291906001600160a01b03929092168252602082015260400190565b60405180910390a483600181518110610e8657610e86613f38565b60200260200101516001600160a01b0316827fc7344c45124818d1d3a4c24ccb9b86d8b88d3bd05209b2a42b494cb32a50352960405160405180910390a383600381518110610ed757610ed7613f38565b60200260200101516001600160a01b0316827fcc1b4af8292e6b938f6743c78a62317c9a2d60e0d46b77776a027e53ce617c0c60405160405180910390a3817f1bf3af41af5ef4ea33bbeffb18acd246aae76d6f03bdb54916577c2e1ab03d523386600281518110610f4b57610f4b613f38565b602002602001015186600381518110610f6657610f66613f38565b6020026020010151604051610f7d93929190613fd4565b60405180910390a2509392505050565b600081815260026020818152604080842081516101e081018352815460ff808216151583526001600160a01b036101009283900481168488015260018501548116958401959095528387015485166060840181905260038501546080850152600485015460a0850152600585015460c0850152600685015460e085015260078501548385015260088501546101208501819052600986015487166101408601819052600a870154610160870152600b870154610180870152600c9096015492831615156101a0860152929091049094166101c083015287875294909352929391829182919061107b9061294b565b9350806101600151925080610180015191505091939590929450565b606060038054806020026020016040519081016040528092919081815260200182805480156110e557602002820191906000526020600020905b8154815260200190600101908083116110d1575b5050505050905090565b600081815260026020526040908190206001015490516396fb3eaf60e01b815233600482015282916001600160a01b03169081906396fb3eaf90602401602060405180830381865afa158015611149573d6000803e3d6000fd5b505050506040513d601f19601f8201168201806040525081019061116d9190613ff8565b806112545750336001600160a01b0316816001600160a01b0316627ffb786040518163ffffffff1660e01b8152600401602060405180830381865afa1580156111ba573d6000803e3d6000fd5b505050506040513d601f19601f820116820180604052508101906111de9190614015565b6040516331a9108f60e11b8152600160048201526001600160a01b039190911690636352211e90602401602060405180830381865afa158015611225573d6000803e3d6000fd5b505050506040513d601f19601f820116820180604052508101906112499190614015565b6001600160a01b0316145b6112705760405162461bcd60e51b81526004016106c490614032565b60008381526002602052604090205460ff16156112cc57600083815260026020526040808220805460ff1916905551339185917f03da9148e1de78fba22de63c573465562ebf6ef878a1d3ea83790a560229984c9190a3505050565b600083815260026020526040808220805460ff1916600117905551339185917fc7344c45124818d1d3a4c24ccb9b86d8b88d3bd05209b2a42b494cb32a5035299190a35b505050565b61131d613030565b60005b8181101561135b5761134983838381811061133d5761133d613f38565b9050602002013561308a565b806113538161407b565b915050611320565b506113666001600055565b5050565b611372613030565b60005b8181101561135b5761139e83838381811061139257611392613f38565b9050602002013561318a565b806113a88161407b565b915050611375565b600081815260026020819052604082208054600182015460048301549383015460058401546003909401546001600160a01b03610100850481169793811696959216939192909160ff1690808080806114088d612b6f565b94506114138d61264d565b60009d8e5260026020526040909d2060068101546007820154600c909201549d9f9c9e9b9d9a9c999b989a9799969897909691955060ff169350915050565b600085815260026020526040902054859060ff166114825760405162461bcd60e51b81526004016106c490614096565b61148a613030565b846114a75760405162461bcd60e51b81526004016106c4906140e1565b8115806114c757506114c3612710670de0b6b3a7640000613fb2565b8210155b61150c5760405162461bcd60e51b8152602060048201526016602482015275436f6e73756d655377617046656520746f6f206c6f7760501b60448201526064016106c4565b6706f05b59d3b2000082111561155e5760405162461bcd60e51b8152602060048201526017602482015276086dedce6eadacaa6eec2e08ccaca40e8dede40d0d2ced604b1b60448201526064016106c4565b6000868152600260205260409020600c015461010090046001600160a01b0316156115c1576000868152600260205260409020600c015461010090046001600160a01b031633146115c15760405162461bcd60e51b81526004016106c490614129565b6040805160808101825260008082526020820181905291810182905260608101919091526001600160a01b0384166115f857600092505b6116038787856129c0565b6060850152604084015260208301528082528511156116735760405162461bcd60e51b815260206004820152602660248201527f46697865645261746545786368616e67653a20546f6f20666577206261736520604482015265746f6b656e7360d01b60648201526084016106c4565b602080820151600089815260029092526040909120600b015461169591613216565b60008881526002602052604090819020600b810192909255820151600a909101546116bf91613216565b60026000898152602001908152602001600020600a0181905550600061170c826060015161170684604001516117068660200151876000015161321690919063ffffffff16565b90613216565b600089815260026020526040902060010154909150611736906001600160a01b031633308a613229565b6000888152600260205260409020600601546117529088613216565b60008981526002602052604090206006810191909155600701548111156117d85760008881526002602081905260409091209081015490546117a7916001600160a01b03908116916101009004163084613229565b8151600089815260026020819052604090912001546117d3916001600160a01b03909116903390613377565b611829565b6000888152600260205260409020600701546117f490826133da565b600089815260026020819052604090912060078101929092558351910154611829916001600160a01b03909116903390613377565b6001600160a01b03851615801590611845575060008260600151115b156118d957606082015160008981526002602081905260409091200154611879916001600160a01b03909116908790613377565b6000888152600260208190526040918290200154606084015191518a927f086a8edf7ac99098be3ce56ba76ae3e5a1e212fed5f803fc3167990fa03079b9926118d0928a926001600160a01b039092169190613fd4565b60405180910390a25b815160008981526002602081815260409283902090910154828601518287015160608089015186519788529487018e90526001600160a01b039093169486019490945290840152608083019190915260a0820152339089907f7b072645ce5b6a2fc627a544edee544b786747cafd1bb8f0e3238aa5f2e806469060c0015b60405180910390a3505061196b6001600055565b505050505050565b61197b613030565b6119848161308a565b61198e6001600055565b50565b600082815260026020526040908190206001015490516396fb3eaf60e01b815233600482015283916001600160a01b03169081906396fb3eaf90602401602060405180830381865afa1580156119eb573d6000803e3d6000fd5b505050506040513d601f19601f82011682018060405250810190611a0f9190613ff8565b80611af65750336001600160a01b0316816001600160a01b0316627ffb786040518163ffffffff1660e01b8152600401602060405180830381865afa158015611a5c573d6000803e3d6000fd5b505050506040513d601f19601f82011682018060405250810190611a809190614015565b6040516331a9108f60e11b8152600160048201526001600160a01b039190911690636352211e90602401602060405180830381865afa158015611ac7573d6000803e3d6000fd5b505050506040513d601f19601f82011682018060405250810190611aeb9190614015565b6001600160a01b0316145b611b125760405162461bcd60e51b81526004016106c490614032565b600084815260026020526040808220600c018054610100600160a81b0319166101006001600160a01b038816908102919091179091559051909186917fcc1b4af8292e6b938f6743c78a62317c9a2d60e0d46b77776a027e53ce617c0c9190a350505050565b600082815260026020526040908190206001015490516396fb3eaf60e01b815233600482015283916001600160a01b03169081906396fb3eaf90602401602060405180830381865afa158015611bd2573d6000803e3d6000fd5b505050506040513d601f19601f82011682018060405250810190611bf69190613ff8565b80611cdd5750336001600160a01b0316816001600160a01b0316627ffb786040518163ffffffff1660e01b8152600401602060405180830381865afa158015611c43573d6000803e3d6000fd5b505050506040513d601f19601f82011682018060405250810190611c679190614015565b6040516331a9108f60e11b8152600160048201526001600160a01b039190911690636352211e90602401602060405180830381865afa158015611cae573d6000803e3d6000fd5b505050506040513d601f19601f82011682018060405250810190611cd29190614015565b6001600160a01b0316145b611cf95760405162461bcd60e51b81526004016106c490614032565b6402540be400831015611d1e5760405162461bcd60e51b81526004016106c490613f4e565b6000848152600260205260409081902060030184905551339085907fe50f9919fdc524004a4ee0cb934f4734f144bec0713a52e5483b753f5de0f08c90611d689087815260200190565b60405180910390a350505050565b600085815260026020526040902054859060ff16611da65760405162461bcd60e51b81526004016106c490614096565b611dae613030565b84611dcb5760405162461bcd60e51b81526004016106c4906140e1565b811580611deb5750611de7612710670de0b6b3a7640000613fb2565b8210155b611e305760405162461bcd60e51b8152602060048201526016602482015275436f6e73756d655377617046656520746f6f206c6f7760501b60448201526064016106c4565b6706f05b59d3b20000821115611e825760405162461bcd60e51b8152602060048201526017602482015276086dedce6eadacaa6eec2e08ccaca40e8dede40d0d2ced604b1b60448201526064016106c4565b6000868152600260205260409020600c015461010090046001600160a01b031615611ee5576000868152600260205260409020600c015461010090046001600160a01b03163314611ee55760405162461bcd60e51b81526004016106c490614129565b6001600160a01b038316611ef857600091505b6000604051806080016040528060008152602001600081526020016000815260200160008152509050611f2c878785612e81565b606085015260408401526020830152808252851015611f9d5760405162461bcd60e51b815260206004820152602760248201527f46697865645261746545786368616e67653a20546f6f206d616e79206261736560448201526620746f6b656e7360c81b60648201526084016106c4565b602080820151600089815260029092526040909120600b0154611fbf91613216565b60008881526002602052604090819020600b810192909255820151600a90910154611fe991613216565b6000888152600260208190526040909120600a8101929092550154815161201d916001600160a01b03169033903090613229565b6000612050826060015161204a846040015161204a866020015187600001516133da90919063ffffffff16565b906133da565b60008981526002602052604090206007015490915061206f9082613216565b60008981526002602052604090206007810191909155600601548711156121dd576000888152600260205260409020600c015460ff1680156121285750600088815260026020526040908190206001015490516355138f0d60e11b81523060048201526001600160a01b039091169063aa271e1a90602401602060405180830381865afa158015612104573d6000803e3d6000fd5b505050506040513d601f19601f820116820180604052508101906121289190613ff8565b156121a657600088815260026020526040908190206001015490516340c10f1960e01b8152336004820152602481018990526001600160a01b03909116906340c10f1990604401600060405180830381600087803b15801561218957600080fd5b505af115801561219d573d6000803e3d6000fd5b50505050612227565b6000888152600260205260409020600181015490546121d8916001600160a01b0390811691610100900416338a613229565b612227565b6000888152600260205260409020600601546121f990886133da565b6000898152600260205260409020600681019190915560010154612227906001600160a01b03163389613377565b6001600160a01b03851615801590612243575060008260600151115b156122d757606082015160008981526002602081905260409091200154612277916001600160a01b03909116908790613377565b6000888152600260208190526040918290200154606084015191518a927f086a8edf7ac99098be3ce56ba76ae3e5a1e212fed5f803fc3167990fa03079b9926122ce928a926001600160a01b039092169190613fd4565b60405180910390a25b815160008981526002602090815260409182902060010154828601518287015160608089015186519788529487018e90526001600160a01b039093169486019490945290840152608083019190915260a0820152339089907f7b072645ce5b6a2fc627a544edee544b786747cafd1bb8f0e3238aa5f2e806469060c001611957565b61236d612710670de0b6b3a7640000613fb2565b81565b600082815260026020526040908190206001015490516396fb3eaf60e01b815233600482015283916001600160a01b03169081906396fb3eaf90602401602060405180830381865afa1580156123ca573d6000803e3d6000fd5b505050506040513d601f19601f820116820180604052508101906123ee9190613ff8565b806124d55750336001600160a01b0316816001600160a01b0316627ffb786040518163ffffffff1660e01b8152600401602060405180830381865afa15801561243b573d6000803e3d6000fd5b505050506040513d601f19601f8201168201806040525081019061245f9190614015565b6040516331a9108f60e11b8152600160048201526001600160a01b039190911690636352211e90602401602060405180830381865afa1580156124a6573d6000803e3d6000fd5b505050506040513d601f19601f820116820180604052508101906124ca9190614015565b6001600160a01b0316145b6124f15760405162461bcd60e51b81526004016106c490614032565b60008481526002602052604090208054600190910154612523916001600160a01b0361010090910481169116856133e6565b600085815260026020908152604091829020600c01805460ff191693151593909317909255518415158152339186917fe28e899e0f5d6fba0c8d73d1888083bcc62d4d9806d2e26fcf1f607c3ed52f539101611d68565b6000828152600260205260409020600901546001600160a01b031633146125dc5760405162461bcd60e51b81526020600482015260166024820152753737ba1036b0b935b2ba2332b2a1b7b63632b1ba37b960511b60448201526064016106c4565b600082815260026020526040908190206009810180546001600160a01b0319166001600160a01b03851617905560080154905183917f1bf3af41af5ef4ea33bbeffb18acd246aae76d6f03bdb54916577c2e1ab03d5291612641913391869190613fd4565b60405180910390a25050565b60008181526002602052604081205460ff1661266b57506000919050565b600082815260026020819052604080832091820154915490516370a0823160e01b81526001600160a01b03610100909204821660048201529116906370a0823190602401602060405180830381865afa1580156126cc573d6000803e3d6000fd5b505050506040513d601f19601f820116820180604052508101906126f0919061417f565b60008481526002602081905260408083209182015491549051636eb1769f60e11b81526101009091046001600160a01b0390811660048301523060248301529394509192169063dd62ed3e90604401602060405180830381865afa15801561275c573d6000803e3d6000fd5b505050506040513d601f19601f82011682018060405250810190612780919061417f565b9050808210156127ae576000848152600260205260409020600701546127a7908390613216565b92506127ce565b6000848152600260205260409020600701546127cb908290613216565b92505b5050919050565b6000828152600260205260409020600901546001600160a01b031633146128375760405162461bcd60e51b81526020600482015260166024820152753737ba1036b0b935b2ba2332b2a1b7b63632b1ba37b960511b60448201526064016106c4565b8015806128575750612853612710670de0b6b3a7640000613fb2565b8110155b6128955760405162461bcd60e51b815260206004820152600f60248201526e5377617046656520746f6f206c6f7760881b60448201526064016106c4565b6706f05b59d3b200008111156128e05760405162461bcd60e51b815260206004820152601060248201526f0a6eec2e08ccaca40e8dede40d0d2ced60831b60448201526064016106c4565b600082815260026020526040908190206008810183905560090154905183917f1bf3af41af5ef4ea33bbeffb18acd246aae76d6f03bdb54916577c2e1ab03d52916126419133916001600160a01b03909116908690613fd4565b612942613030565b6119848161318a565b60015460405163b8421e2b60e01b81526001600160a01b038381166004830152600092169063b8421e2b90602401602060405180830381865afa158015612996573d6000803e3d6000fd5b505050506040513d601f19601f820116820180604052508101906129ba919061417f565b92915050565b600083815260026020526040812054819081908190879060ff166129f65760405162461bcd60e51b81526004016106c490614096565b6000612a02898961357e565b6040805160808101825260008082526020808301829052828401829052606083018290528d82526002908190529281209092015492935091612a4c906001600160a01b031661294b565b90508015612a7a57612a70670de0b6b3a7640000612a6a85846135ed565b906135f9565b6020830152612a82565b600060208301525b60008b81526002602052604090206008015415612ace5760008b815260026020526040902060080154612ac490670de0b6b3a764000090612a6a9086906135ed565b6040830152612ad6565b600060408301525b8815612afc57612af2670de0b6b3a7640000612a6a858c6135ed565b6060830152612b04565b600060608301525b612b2b826060015161204a846020015161204a8660400151886133da90919063ffffffff16565b80835260208301516040840151606090940151919d909c50929a509850909650505050505050565b612b5b613030565b612b658282613605565b6113666001600055565b60008181526002602052604081205460ff16612b8d57506000919050565b6000828152600260205260409020600c015460ff168015612c255750600082815260026020526040908190206001015490516355138f0d60e11b81523060048201526001600160a01b039091169063aa271e1a90602401602060405180830381865afa158015612c01573d6000803e3d6000fd5b505050506040513d601f19601f82011682018060405250810190612c259190613ff8565b15612d2a576000828152600260209081526040918290206001015482516318160ddd60e01b815292516001600160a01b03909116926318160ddd9260048083019391928290030181865afa158015612c81573d6000803e3d6000fd5b505050506040513d601f19601f82011682018060405250810190612ca5919061417f565b600083815260026020908152604091829020600101548251631aa93a7560e11b815292516001600160a01b039091169263355274ea9260048083019391928290030181865afa158015612cfc573d6000803e3d6000fd5b505050506040513d601f19601f82011682018060405250810190612d20919061417f565b6129ba9190614198565b6000828152600260205260408082206001810154905491516370a0823160e01b81526101009092046001600160a01b03908116600484015216906370a0823190602401602060405180830381865afa158015612d8a573d6000803e3d6000fd5b505050506040513d601f19601f82011682018060405250810190612dae919061417f565b600084815260026020526040808220600181015490549151636eb1769f60e11b81526001600160a01b0361010090930483166004820152306024820152939450919291169063dd62ed3e90604401602060405180830381865afa158015612e19573d6000803e3d6000fd5b505050506040513d601f19601f82011682018060405250810190612e3d919061417f565b905080821015612e64576000848152600260205260409020600601546127a7908390613216565b6000848152600260205260409020600601546127cb908290613216565b600083815260026020526040812054819081908190879060ff16612eb75760405162461bcd60e51b81526004016106c490614096565b6000612ec3898961357e565b6040805160808101825260008082526020808301829052828401829052606083018290528d82526002908190529281209092015492935091612f0d906001600160a01b031661294b565b90508015612f3557612f2b670de0b6b3a7640000612a6a85846135ed565b6020830152612f3d565b600060208301525b60008b81526002602052604090206008015415612f895760008b815260026020526040902060080154612f7f90670de0b6b3a764000090612a6a9086906135ed565b6040830152612f91565b600060408301525b8815612fb757612fad670de0b6b3a7640000612a6a858c6135ed565b6060830152612fbf565b600060608301525b612b2b8260600151611706846020015161170686604001518861321690919063ffffffff16565b604080516001600160a01b03938416602080830191909152929093168382015280518084038201815260609093019052815191012090565b613026613030565b612b65828261377e565b600260005414156130835760405162461bcd60e51b815260206004820152601f60248201527f5265656e7472616e637947756172643a207265656e7472616e742063616c6c0060448201526064016106c4565b6002600055565b6000818152600260209081526040808320600b0180549390556001548151631a81876d60e01b81529151613132936001600160a01b0390921692631a81876d9260048083019391928290030181865afa1580156130eb573d6000803e3d6000fd5b505050506040513d601f19601f8201168201806040525081019061310f9190614015565b600084815260026020819052604090912001546001600160a01b03169083613377565b6000828152600260208181526040928390209091015491518381526001600160a01b039092169184917f457b44fd47c33fc65bfbd58d0202ad97fbed1bbc9881f56441d05fe9ebd58acf910160405180910390a35050565b6000818152600260208181526040808420600a810180549590559092015491518381526001600160a01b039092169184917f192a3cd95e40313e0e12c28b398e31633936e38d134419161f883c8d64079055910160405180910390a360008281526002602081905260409091206009810154910154611366916001600160a01b03918216911683613377565b600061322282846141af565b9392505050565b6040516370a0823160e01b81526001600160a01b038381166004830152600091908616906370a0823190602401602060405180830381865afa158015613273573d6000803e3d6000fd5b505050506040513d601f19601f82011682018060405250810190613297919061417f565b90506132ae6001600160a01b0386168585856138ef565b6132b88183613216565b6040516370a0823160e01b81526001600160a01b0385811660048301528716906370a0823190602401602060405180830381865afa1580156132fe573d6000803e3d6000fd5b505050506040513d601f19601f82011682018060405250810190613322919061417f565b10156133705760405162461bcd60e51b815260206004820152601a60248201527f5472616e7366657220616d6f756e7420697320746f6f206c6f7700000000000060448201526064016106c4565b5050505050565b6040516001600160a01b03831660248201526044810182905261131090849063a9059cbb60e01b906064015b60408051601f198184030181529190526020810180516001600160e01b03166001600160e01b031990931692909217909152613916565b60006132228284614198565b6000816133f557506000613222565b6000836001600160a01b0316627ffb786040518163ffffffff1660e01b8152600401602060405180830381865afa158015613434573d6000803e3d6000fd5b505050506040513d601f19601f820116820180604052508101906134589190614015565b60405163160a792560e01b81526001600160a01b03878116600483015291925060009183169063160a792590602401608060405180830381865afa1580156134a4573d6000803e3d6000fd5b505050506040513d601f19601f820116820180604052508101906134c891906141c7565b80519091501515600114806134e35750602081015115156001145b8061356257506040516331a9108f60e11b8152600160048201526001600160a01b038088169190841690636352211e90602401602060405180830381865afa158015613533573d6000803e3d6000fd5b505050506040513d601f19601f820116820180604052508101906135579190614015565b6001600160a01b0316145b1561357257600192505050613222565b50600095945050505050565b60008281526002602052604081206004015461322290670de0b6b3a764000090612a6a906135ad90600a614330565b600087815260026020526040902060050154612a6a906135ce90600a614330565b6000898152600260205260409020600301546135eb9089906135ed565b905b6000613222828461433c565b60006132228284613fb2565b6000828152600260205260409020600601548111156136585760405162461bcd60e51b815260206004820152600f60248201526e082dadeeadce840e8dede40d0d2ced608b1b60448201526064016106c4565b6000828152600260209081526040808320600101548151631c90f85d60e31b815291516001600160a01b039091169263e487c2e892600480820193918290030181865afa1580156136ad573d6000803e3d6000fd5b505050506040513d601f19601f820116820180604052508101906136d19190614015565b6000848152600260205260409020600601549091506136f090836133da565b60008481526002602052604090819020600681019290925560019091015490516001600160a01b039182169183169085907fecc75f4464886bee0a1c5eae61c0cb4b99c64c5e9cdebe3696217d266f8b1636906137509087815260200190565b60405180910390a4600083815260026020526040902060010154611310906001600160a01b03168284613377565b6000828152600260205260409020600701548111156137d15760405162461bcd60e51b815260206004820152600f60248201526e082dadeeadce840e8dede40d0d2ced608b1b60448201526064016106c4565b6000828152600260209081526040808320600101548151631c90f85d60e31b815291516001600160a01b039091169263e487c2e892600480820193918290030181865afa158015613826573d6000803e3d6000fd5b505050506040513d601f19601f8201168201806040525081019061384a9190614015565b60008481526002602052604090206007015490915061386990836133da565b600084815260026020818152604092839020600781019490945592015490518481526001600160a01b03918216929184169186917fecc75f4464886bee0a1c5eae61c0cb4b99c64c5e9cdebe3696217d266f8b1636910160405180910390a460008381526002602081905260409091200154611310906001600160a01b03168284613377565b613910846323b872dd60e01b8585856040516024016133a393929190613fd4565b50505050565b600061396b826040518060400160405280602081526020017f5361666545524332303a206c6f772d6c6576656c2063616c6c206661696c6564815250856001600160a01b03166139e89092919063ffffffff16565b80519091501561131057808060200190518101906139899190613ff8565b6113105760405162461bcd60e51b815260206004820152602a60248201527f5361666545524332303a204552433230206f7065726174696f6e20646964206e6044820152691bdd081cdd58d8d9595960b21b60648201526084016106c4565b60606139f784846000856139ff565b949350505050565b606082471015613a605760405162461bcd60e51b815260206004820152602660248201527f416464726573733a20696e73756666696369656e742062616c616e636520666f6044820152651c8818d85b1b60d21b60648201526084016106c4565b843b613aae5760405162461bcd60e51b815260206004820152601d60248201527f416464726573733a2063616c6c20746f206e6f6e2d636f6e747261637400000060448201526064016106c4565b600080866001600160a01b03168587604051613aca9190614387565b60006040518083038185875af1925050503d8060008114613b07576040519150601f19603f3d011682016040523d82523d6000602084013e613b0c565b606091505b5091509150613b1c828286613b27565b979650505050505050565b60608315613b36575081613222565b825115613b465782518084602001fd5b8160405162461bcd60e51b81526004016106c491906143a3565b6001600160a01b038116811461198e57600080fd5b634e487b7160e01b600052604160045260246000fd5b604051601f8201601f1916810167ffffffffffffffff81118282101715613bb457613bb4613b75565b604052919050565b600067ffffffffffffffff821115613bd657613bd6613b75565b5060051b60200190565b600082601f830112613bf157600080fd5b81356020613c06613c0183613bbc565b613b8b565b82815260059290921b84018101918181019086841115613c2557600080fd5b8286015b84811015613c405780358352918301918301613c29565b509695505050505050565b600080600060608486031215613c6057600080fd5b8335613c6b81613b60565b925060208481013567ffffffffffffffff80821115613c8957600080fd5b818701915087601f830112613c9d57600080fd5b8135613cab613c0182613bbc565b81815260059190911b8301840190848101908a831115613cca57600080fd5b938501935b82851015613cf1578435613ce281613b60565b82529385019390850190613ccf565b965050506040870135925080831115613d0957600080fd5b5050613d1786828701613be0565b9150509250925092565b600060208284031215613d3357600080fd5b5035919050565b6020808252825182820181905260009190848201906040850190845b81811015613d7257835183529284019291840191600101613d56565b50909695505050505050565b60008060208385031215613d9157600080fd5b823567ffffffffffffffff80821115613da957600080fd5b818501915085601f830112613dbd57600080fd5b813581811115613dcc57600080fd5b8660208260051b8501011115613de157600080fd5b60209290920196919550909350505050565b600080600080600060a08688031215613e0b57600080fd5b8535945060208601359350604086013592506060860135613e2b81613b60565b949793965091946080013592915050565b60008060408385031215613e4f57600080fd5b823591506020830135613e6181613b60565b809150509250929050565b60008060408385031215613e7f57600080fd5b50508035926020909101359150565b801515811461198e57600080fd5b60008060408385031215613eaf57600080fd5b823591506020830135613e6181613e8e565b600060208284031215613ed357600080fd5b813561322281613b60565b600080600060608486031215613ef357600080fd5b505081359360208301359350604090920135919050565b60008060408385031215613f1d57600080fd5b8235613f2881613b60565b91506020830135613e6181613b60565b634e487b7160e01b600052603260045260246000fd5b6020808252602e908201527f46697865645261746545786368616e67653a20496e76616c696420657863686160408201526d6e676520726174652076616c756560901b606082015260800190565b634e487b7160e01b600052601160045260246000fd5b600082613fcf57634e487b7160e01b600052601260045260246000fd5b500490565b6001600160a01b039384168152919092166020820152604081019190915260600190565b60006020828403121561400a57600080fd5b815161322281613e8e565b60006020828403121561402757600080fd5b815161322281613b60565b60208082526029908201527f46697865645261746545786368616e67653a20696e76616c69642065786368616040820152683733b29037bbb732b960b91b606082015260800190565b600060001982141561408f5761408f613f9c565b5060010190565b6020808252602b908201527f46697865645261746545786368616e67653a2045786368616e676520646f657360408201526a206e6f742065786973742160a81b606082015260800190565b60208082526028908201527f46697865645261746545786368616e67653a207a65726f2064617461746f6b656040820152671b88185b5bdd5b9d60c21b606082015260800190565b60208082526036908201527f46697865645261746545786368616e67653a205468697320616464726573732060408201527506973206e6f7420616c6c6f77656420746f20737761760541b606082015260800190565b60006020828403121561419157600080fd5b5051919050565b6000828210156141aa576141aa613f9c565b500390565b600082198211156141c2576141c2613f9c565b500190565b6000608082840312156141d957600080fd5b6040516080810181811067ffffffffffffffff821117156141fc576141fc613b75565b604052825161420a81613e8e565b8152602083015161421a81613e8e565b6020820152604083015161422d81613e8e565b6040820152606083015161424081613e8e565b60608201529392505050565b600181815b8085111561428757816000190482111561426d5761426d613f9c565b8085161561427a57918102915b93841c9390800290614251565b509250929050565b60008261429e575060016129ba565b816142ab575060006129ba565b81600181146142c157600281146142cb576142e7565b60019150506129ba565b60ff8411156142dc576142dc613f9c565b50506001821b6129ba565b5060208310610133831016604e8410600b841016171561430a575081810a6129ba565b614314838361424c565b806000190482111561432857614328613f9c565b029392505050565b6000613222838361428f565b600081600019048311821515161561435657614356613f9c565b500290565b60005b8381101561437657818101518382015260200161435e565b838111156139105750506000910152565b6000825161439981846020870161435b565b9190910192915050565b60208152600082518060208401526143c281604085016020870161435b565b601f01601f1916919091016040019291505056fea264697066735822122092a91f50d793e3b208afc4f3a71c439ab507c5845edfa17c9a922523db1a28c464736f6c634300080c0033",
  "linkReferences": {},
  "deployedLinkReferences": {}
}