{
  "_format": "hh-sol-artifact-1",
  "contractName": "Etherbase",
  "sourceName": "contracts/Etherbase.sol",
  "abi": [
    {
      "inputs": [
        {
          "internalType": "address",
          "name": "schainOwner",
          "type": "address"
        }
      ],
      "stateMutability": "nonpayable",
      "type": "constructor"
    },
    {
      "inputs": [],
      "name": "EmptyReceiver",
      "type": "error"
    },
    {
      "inputs": [],
      "name": "InsufficientFunds",
      "type": "error"
    },
    {
      "inputs": [
        {
          "internalType": "bytes32",
          "name": "role",
          "type": "bytes32"
        }
      ],
      "name": "RoleRequired",
      "type": "error"
    },
    {
      "inputs": [
        {
          "internalType": "address",
          "name": "unauthorizedSender",
          "type": "address"
        }
      ],
      "name": "Unauthorized",
      "type": "error"
    },
    {
      "anonymous": false,
      "inputs": [
        {
          "indexed": false,
          "internalType": "address",
          "name": "sender",
          "type": "address"
        },
        {
          "indexed": false,
          "internalType": "uint256",
          "name": "amount",
          "type": "uint256"
        }
      ],
      "name": "EtherReceived",
      "type": "event"
    },
    {
      "anonymous": false,
      "inputs": [
        {
          "indexed": false,
          "internalType": "address",
          "name": "receiver",
          "type": "address"
        },
        {
          "indexed": false,
          "internalType": "uint256",
          "name": "amount",
          "type": "uint256"
        }
      ],
      "name": "EtherSent",
      "type": "event"
    },
    {
      "anonymous": false,
      "inputs": [
        {
          "indexed": true,
          "internalType": "bytes32",
          "name": "role",
          "type": "bytes32"
        },
        {
          "indexed": true,
          "internalType": "bytes32",
          "name": "previousAdminRole",
          "type": "bytes32"
        },
        {
          "indexed": true,
          "internalType": "bytes32",
          "name": "newAdminRole",
          "type": "bytes32"
        }
      ],
      "name": "RoleAdminChanged",
      "type": "event"
    },
    {
      "anonymous": false,
      "inputs": [
        {
          "indexed": true,
          "internalType": "bytes32",
          "name": "role",
          "type": "bytes32"
        },
        {
          "indexed": true,
          "internalType": "address",
          "name": "account",
          "type": "address"
        },
        {
          "indexed": true,
          "internalType": "address",
          "name": "sender",
          "type": "address"
        }
      ],
      "name": "RoleGranted",
      "type": "event"
    },
    {
      "anonymous": false,
      "inputs": [
        {
          "indexed": true,
          "internalType": "bytes32",
          "name": "role",
          "type": "bytes32"
        },
        {
          "indexed": true,
          "internalType": "address",
          "name": "account",
          "type": "address"
        },
        {
          "indexed": true,
          "internalType": "address",
          "name": "sender",
          "type": "address"
        }
      ],
      "name": "RoleRevoked",
      "type": "event"
    },
    {
      "inputs": [],
      "name": "DEFAULT_ADMIN_ROLE",
      "outputs": [
        {
          "internalType": "bytes32",
          "name": "",
          "type": "bytes32"
        }
      ],
      "stateMutability": "view",
      "type": "function"
    },
    {
      "inputs": [],
      "name": "ETHER_MANAGER_ROLE",
      "outputs": [
        {
          "internalType": "bytes32",
          "name": "",
          "type": "bytes32"
        }
      ],
      "stateMutability": "view",
      "type": "function"
    },
    {
      "inputs": [
        {
          "internalType": "bytes32",
          "name": "role",
          "type": "bytes32"
        }
      ],
      "name": "getRoleAdmin",
      "outputs": [
        {
          "internalType": "bytes32",
          "name": "",
          "type": "bytes32"
        }
      ],
      "stateMutability": "view",
      "type": "function"
    },
    {
      "inputs": [
        {
          "internalType": "bytes32",
          "name": "role",
          "type": "bytes32"
        },
        {
          "internalType": "uint256",
          "name": "index",
          "type": "uint256"
        }
      ],
      "name": "getRoleMember",
      "outputs": [
        {
          "internalType": "address",
          "name": "",
          "type": "address"
        }
      ],
      "stateMutability": "view",
      "type": "function"
    },
    {
      "inputs": [
        {
          "internalType": "bytes32",
          "name": "role",
          "type": "bytes32"
        }
      ],
      "name": "getRoleMemberCount",
      "outputs": [
        {
          "internalType": "uint256",
          "name": "",
          "type": "uint256"
        }
      ],
      "stateMutability": "view",
      "type": "function"
    },
    {
      "inputs": [
        {
          "internalType": "bytes32",
          "name": "role",
          "type": "bytes32"
        },
        {
          "internalType": "address",
          "name": "account",
          "type": "address"
        }
      ],
      "name": "grantRole",
      "outputs": [],
      "stateMutability": "nonpayable",
      "type": "function"
    },
    {
      "inputs": [
        {
          "internalType": "bytes32",
          "name": "role",
          "type": "bytes32"
        },
        {
          "internalType": "address",
          "name": "account",
          "type": "address"
        }
      ],
      "name": "hasRole",
      "outputs": [
        {
          "internalType": "bool",
          "name": "",
          "type": "bool"
        }
      ],
      "stateMutability": "view",
      "type": "function"
    },
    {
      "inputs": [
        {
          "internalType": "address payable",
          "name": "receiver",
          "type": "address"
        },
        {
          "internalType": "uint256",
          "name": "amount",
          "type": "uint256"
        }
      ],
      "name": "partiallyRetrieve",
      "outputs": [],
      "stateMutability": "nonpayable",
      "type": "function"
    },
    {
      "inputs": [
        {
          "internalType": "bytes32",
          "name": "role",
          "type": "bytes32"
        },
        {
          "internalType": "address",
          "name": "account",
          "type": "address"
        }
      ],
      "name": "renounceRole",
      "outputs": [],
      "stateMutability": "nonpayable",
      "type": "function"
    },
    {
      "inputs": [
        {
          "internalType": "address payable",
          "name": "receiver",
          "type": "address"
        }
      ],
      "name": "retrieve",
      "outputs": [],
      "stateMutability": "nonpayable",
      "type": "function"
    },
    {
      "inputs": [
        {
          "internalType": "bytes32",
          "name": "role",
          "type": "bytes32"
        },
        {
          "internalType": "address",
          "name": "account",
          "type": "address"
        }
      ],
      "name": "revokeRole",
      "outputs": [],
      "stateMutability": "nonpayable",
      "type": "function"
    },
    {
      "inputs": [
        {
          "internalType": "bytes4",
          "name": "interfaceId",
          "type": "bytes4"
        }
      ],
      "name": "supportsInterface",
      "outputs": [
        {
          "internalType": "bool",
          "name": "",
          "type": "bool"
        }
      ],
      "stateMutability": "view",
      "type": "function"
    },
    {
      "stateMutability": "payable",
      "type": "receive"
    }
  ],
  "bytecode": "0x60806040523480156200001157600080fd5b5060405162000f7e38038062000f7e8339810160408190526200003491620001d9565b6200004160008262000074565b6200006d7fe0ba7b49edc651b7ad93b374c67f1e9a0d37370168bbb86b81c569ebfa15f0468262000074565b506200020b565b62000080828262000084565b5050565b6200009b8282620000c760201b620005661760201c565b6000828152600160209081526040909120620000c2918390620005ea62000167821b17901c565b505050565b6000828152602081815260408083206001600160a01b038516845290915290205460ff1662000080576000828152602081815260408083206001600160a01b03851684529091529020805460ff19166001179055620001233390565b6001600160a01b0316816001600160a01b0316837f2f8788117e7eff1d82e926ec794901d17c78024a50270940304540a733656f0d60405160405180910390a45050565b60006200017e836001600160a01b03841662000187565b90505b92915050565b6000818152600183016020526040812054620001d05750815460018181018455600084815260208082209093018490558454848252828601909352604090209190915562000181565b50600062000181565b600060208284031215620001ec57600080fd5b81516001600160a01b03811681146200020457600080fd5b9392505050565b610d63806200021b6000396000f3fe6080604052600436106100ab5760003560e01c80639010d07c116100645780639010d07c146101e457806391d148541461021c578063a217fddf1461023c578063bc2a1e8d14610251578063ca15c87314610273578063d547741f1461029357600080fd5b806301ffc9a7146100ef5780630a79309b14610124578063204a3e9314610146578063248a9ca3146101665780632f2ff15d146101a457806336568abe146101c457600080fd5b366100ea57604080513381523460208201527f1e57e3bb474320be3d2c77138f75b7c3941292d647f5f9634e33a8e94e0e069b910160405180910390a1005b600080fd5b3480156100fb57600080fd5b5061010f61010a366004610a85565b6102b3565b60405190151581526020015b60405180910390f35b34801561013057600080fd5b5061014461013f366004610ac4565b6102de565b005b34801561015257600080fd5b50610144610161366004610ae1565b610335565b34801561017257600080fd5b50610196610181366004610b0d565b60009081526020819052604090206001015490565b60405190815260200161011b565b3480156101b057600080fd5b506101446101bf366004610b26565b61043f565b3480156101d057600080fd5b506101446101df366004610b26565b610464565b3480156101f057600080fd5b506102046101ff366004610b56565b6104e2565b6040516001600160a01b03909116815260200161011b565b34801561022857600080fd5b5061010f610237366004610b26565b610501565b34801561024857600080fd5b50610196600081565b34801561025d57600080fd5b50610196600080516020610d0e83398151915281565b34801561027f57600080fd5b5061019661028e366004610b0d565b61052a565b34801561029f57600080fd5b506101446102ae366004610b26565b610541565b60006001600160e01b03198216635a05180f60e01b14806102d857506102d8826105ff565b92915050565b6102f6600080516020610d0e83398151915233610501565b61032857604051634d4a974f60e01b8152600080516020610d0e83398151915260048201526024015b60405180910390fd5b6103328147610335565b50565b61034d600080516020610d0e83398151915233610501565b61037a57604051634d4a974f60e01b8152600080516020610d0e833981519152600482015260240161031f565b6001600160a01b0382166103a15760405163d551823d60e01b815260040160405180910390fd5b478111156103c25760405163356680b760e01b815260040160405180910390fd5b604080516001600160a01b0384168152602081018390527f6109e2559dfa766aaec7118351d48a523f0a4157f49c8d68749c8ac41318ad12910160405180910390a16040516001600160a01b0383169082156108fc029083906000818181858888f1935050505015801561043a573d6000803e3d6000fd5b505050565b60008281526020819052604090206001015461045a81610634565b61043a838361063e565b6001600160a01b03811633146104d45760405162461bcd60e51b815260206004820152602f60248201527f416363657373436f6e74726f6c3a2063616e206f6e6c792072656e6f756e636560448201526e103937b632b9903337b91039b2b63360891b606482015260840161031f565b6104de8282610660565b5050565b60008281526001602052604081206104fa9083610682565b9392505050565b6000918252602082815260408084206001600160a01b0393909316845291905290205460ff1690565b60008181526001602052604081206102d89061068e565b60008281526020819052604090206001015461055c81610634565b61043a8383610660565b6105708282610501565b6104de576000828152602081815260408083206001600160a01b03851684529091529020805460ff191660011790556105a63390565b6001600160a01b0316816001600160a01b0316837f2f8788117e7eff1d82e926ec794901d17c78024a50270940304540a733656f0d60405160405180910390a45050565b60006104fa836001600160a01b038416610698565b60006001600160e01b03198216637965db0b60e01b14806102d857506301ffc9a760e01b6001600160e01b03198316146102d8565b61033281336106e7565b6106488282610566565b600082815260016020526040902061043a90826105ea565b61066a8282610740565b600082815260016020526040902061043a90826107a5565b60006104fa83836107ba565b60006102d8825490565b60008181526001830160205260408120546106df575081546001818101845560008481526020808220909301849055845484825282860190935260409020919091556102d8565b5060006102d8565b6106f18282610501565b6104de576106fe816107e4565b6107098360206107f6565b60405160200161071a929190610ba8565b60408051601f198184030181529082905262461bcd60e51b825261031f91600401610c1d565b61074a8282610501565b156104de576000828152602081815260408083206001600160a01b0385168085529252808320805460ff1916905551339285917ff6391f5c32d9c69d2a47ea670b442974b53935d1edc7fd64eb21e047a839171b9190a45050565b60006104fa836001600160a01b038416610992565b60008260000182815481106107d1576107d1610c50565b9060005260206000200154905092915050565b60606102d86001600160a01b03831660145b60606000610805836002610c7c565b610810906002610c9b565b67ffffffffffffffff81111561082857610828610cb3565b6040519080825280601f01601f191660200182016040528015610852576020820181803683370190505b509050600360fc1b8160008151811061086d5761086d610c50565b60200101906001600160f81b031916908160001a905350600f60fb1b8160018151811061089c5761089c610c50565b60200101906001600160f81b031916908160001a90535060006108c0846002610c7c565b6108cb906001610c9b565b90505b6001811115610943576f181899199a1a9b1b9c1cb0b131b232b360811b85600f16601081106108ff576108ff610c50565b1a60f81b82828151811061091557610915610c50565b60200101906001600160f81b031916908160001a90535060049490941c9361093c81610cc9565b90506108ce565b5083156104fa5760405162461bcd60e51b815260206004820181905260248201527f537472696e67733a20686578206c656e67746820696e73756666696369656e74604482015260640161031f565b60008181526001830160205260408120548015610a7b5760006109b6600183610ce0565b85549091506000906109ca90600190610ce0565b9050818114610a2f5760008660000182815481106109ea576109ea610c50565b9060005260206000200154905080876000018481548110610a0d57610a0d610c50565b6000918252602080832090910192909255918252600188019052604090208390555b8554869080610a4057610a40610cf7565b6001900381819060005260206000200160009055905585600101600086815260200190815260200160002060009055600193505050506102d8565b60009150506102d8565b600060208284031215610a9757600080fd5b81356001600160e01b0319811681146104fa57600080fd5b6001600160a01b038116811461033257600080fd5b600060208284031215610ad657600080fd5b81356104fa81610aaf565b60008060408385031215610af457600080fd5b8235610aff81610aaf565b946020939093013593505050565b600060208284031215610b1f57600080fd5b5035919050565b60008060408385031215610b3957600080fd5b823591506020830135610b4b81610aaf565b809150509250929050565b60008060408385031215610b6957600080fd5b50508035926020909101359150565b60005b83811015610b93578181015183820152602001610b7b565b83811115610ba2576000848401525b50505050565b7f416363657373436f6e74726f6c3a206163636f756e7420000000000000000000815260008351610be0816017850160208801610b78565b7001034b99036b4b9b9b4b733903937b6329607d1b6017918401918201528351610c11816028840160208801610b78565b01602801949350505050565b6020815260008251806020840152610c3c816040850160208701610b78565b601f01601f19169190910160400192915050565b634e487b7160e01b600052603260045260246000fd5b634e487b7160e01b600052601160045260246000fd5b6000816000190483118215151615610c9657610c96610c66565b500290565b60008219821115610cae57610cae610c66565b500190565b634e487b7160e01b600052604160045260246000fd5b600081610cd857610cd8610c66565b506000190190565b600082821015610cf257610cf2610c66565b500390565b634e487b7160e01b600052603160045260246000fdfee0ba7b49edc651b7ad93b374c67f1e9a0d37370168bbb86b81c569ebfa15f046a2646970667358221220082a37214e8bbfb2211fdd50e7a96fe9e9b022bece30bc5ab61d5a2905ce820164736f6c634300080b0033",
  "linkReferences": {},
  "deployedLinkReferences": {}
}